:100000000C942A000C943F000C943F000C943F0089
:100010000C943F000C943F000C943F000C943F0064
:100020000C943F000C943F000C943F000C943F0054
:100030000C943F000C943F000C943F000C943F0044
:100040000C943F000C943F000C943F000C943F0034
:100050000C943F0011241FBECFE5D4E0DEBFCDBF1E
:1000600010E0A0E6B0E0E2E2F1E002C005900D92FF
:10007000AC36B107D9F70E9441000C948F000C9464
:1000800000008FEF81BB90EF94BB85BB2FED3FEB62
:100090009FEE51E062E040E085B38F7085BB83B393
:1000A0008F708F30C9F7E7E8F3E13197F1F700C0BF
:1000B000000083B38F708F30B1F395BB83B38F7023
:1000C0008F3061F425BB83B38F708F3049F435BB1B
:1000D00083B38F708F3089F3E62F03C0E42F01C004
:1000E000E52F8E3031F4F0E0E05AFF4F808182BB83
:1000F000D3CF8D3031F4F0E0E05AFF4F838182BBE3
:10010000CBCF8B3031F4F0E0E05AFF4F868182BBD9
:10011000C3CFF0E0E05AFF4F818582BBBDCFF8949A
:02012000FFCF0F
:0C012200F9A4B0999282F8809088C0C0C7
:00000001FF
